:100000000C94AB000C9400000C9400000C940000C5
:100010000C9400000C9400000C9400000C94000060
:100020000C9400000C9400000C9400000C94D70079
:100030000C9400000C9400000C9400000C94000040
:100040000C9400000C9400000C9400000C94000030
:100050000C94000020222A2B2C5B3D5D7C7F00004D
:100060000004000200018000400020001000080091
:100070000400020000000080004000200010000882
:10008000004000200010000800040002303A2F66F3
:10009000696C65342E747874736F6D65207465783F
:1000A000740048657265277320736F6D65206D6FEE
:1000B000726520746578742E2E2E20456E746572DC
:1000C000007365656B203A200052656164005772C9
:1000D0006974650080C00100EBFE904D53444F539E
:1000E000352E30004E4F204E414D452020202046D9
:1000F00041543332202020004E4F204E414D4520A8
:1001000020202046415420202020200001002D4E98
:10011000414E00494E4600000C00D0068C000900FC
:10012000DD06980018001107A20007006002BA005F
:1001300008006702C10005006F02C90006007402D2
:10014000CE0002002A07D40001002E07D6000100CD
:1001500037070C010000F894EE27ECBBF1E0F5BF87
:10016000E5BF8DE0A2E0BB27ED938A95E9F780E03B
:1001700098E0A0E6ED930197E9F7E8E1F1E08591D9
:100180009591009761F0A591B59105901590BF01EB
:10019000F00105900D920197E1F7FB01F0CFEFE53B
:1001A000EDBFE8E0EEBFC0E6D2E00C94F6000A92A4
:1001B0001A92FA926A937A938A939A93AA93BA9329
:1001C000EA93FA93EFB7EA93E2EBE2BF0E94E20709
:1001D000E991EFBFF991E991B991A991999189912B
:1001E00079916991F9901990099018952F97E0E00D
:1001F000ED87EE8700E010E020E030E040E050E0E6
:10020000EABBEBBBE0E2E7BBE0E0E8BBE4BBE5BB9D
:10021000E1BBE2BBE5E0E3BFE2EBE2BFE0E0ECBF65
:10022000EFBDEEBDEDBDECBDE7BDE6BDEBBDEABD8E
:10023000E9BDE8BDE2BDE5BDE4BDE3BDE1E0E9BF88
:10024000E0E0E5BFE4BFEAB9E0E8E8B9E0E0E0BF3C
:10025000E6B9EDB9E6BFA0E10E9433037894E0E08F
:10026000EA93AEE7B2E00E943A115E2EE03019F058
:10027000A1E0B0E0D6D00E943518A3E00E9467113B
:100280005E2EE03051F00E943518A7E00E94671101
:100290005E2EE03011F00E943E18AAE0B0E080E04F
:1002A00090E0E6D0E4E10E944218A4E1B0E080E0F2
:1002B00090E0DED0E8E20E944218A6E1B0E080E0E3
:1002C00090E0D6D0EBE20E9442182297E1D0E8837A
:1002D000F983A881B981AF3FEFEFBE0769F0A83E6F
:1002E000E3E0BE074CF44230E0E05E0724F4AF8563
:1002F000B889119709F401C019C0A4E6B0E00E94C2
:100300007D1CF801AAE0B0E00E941F1D8F01E8816A
:10031000F9810E0F1F1F2F5F3F4F0E944618A6E95D
:10032000B0E00E947D1C44E650E078C0E4E6F0E0D6
:10033000E417F50731F4A881B981A83EE3E0BE07D0
:1003400009F03CC0A0E6B2E00E94501841E050E045
:10035000EF85F8893196EF87F88BAF85B8891197CB
:1003600011F40E945818AF85B889129729F40093A8
:10037000DD066CD000E010E0EF85F8893097E9F4F5
:100380001A930A93DE011B960E94CC17A7E6B2E0EF
:1003900059D1DE01199656D1A8ECB0E00E947D1C1F
:1003A00030D10E94581844D0E0911107F0E00E942B
:1003B0004618A0E9B1E00E947D1C30C0A881B98137
:1003C000A03BE4E0BE0721F4AF85B889129709F09D
:1003D0000BC0AFE6B2E00E94501842E050E0EFEFF1
:1003E000FFEFEF87F88B1AC0A881B981AC34E4E045
:1003F000BE0769F400240416050629F0E1E0F0E0E8
:10040000E417F50721F4AF85B889119709F406C000
:10041000A4E7B2E00E94501843E050E0229655CF86
:10042000FFCFBA93AA93EFEFE1BBE881E2BBFFCF26
:100430000E946018E1E1F7E00E9465180E9499129D
:100440005E2EE03011F00E943E1808950E94601860
:10045000EDEDF6E00E9465180E94FF135E2EE0307D
:1004600011F00E943E18A0EBB4E00E94A21508957E
:100470000E949C1D24970E9460180E946E180E9482
:1004800026165E2EE03011F00E943E180C945206A3
:100490000E94C41D0FEF1FEFEFE0E4BBA898A998DE
:1004A000AA98AB98AC9AAD9AAE9AAF9AA2E0B0E097
:1004B0000E947D1C9C9903C000E010E00EC09D9935
:1004C00003C001E010E009C09E9903C002E010E003
:1004D00004C09F9902C003E010E0E0EFE4BBA89ADB
:1004E000A99AAA9AAB9AAC98AD98AE98AF98A2E0A8
:1004F000B0E00E947D1C989903C020E030E00EC05F
:10050000999903C021E030E009C09A9903C022E024
:1005100030E004C09B9902C023E030E0E3E0F0E06B
:10052000E017F107F9F4E217F30731F4E8EEF3E02E
:100530000E94CB1D0C948E08E2E0F0E0E217F30776
:1005400031F4ECE4F4E00E94CB1D0C948E08E1E061
:10055000F0E0E217F30731F4E0EBF4E00E94CB1D8A
:100560000C948E08022E032A49F4002E012A31F041
:10057000EFEFFFEF0E94CB1D0C948E08EFEFFFEF23
:10058000E017F10729F4F8010E94CB1D0C948E08A6
:10059000F801A3E0B0E00E941F1DE20FF31F0E94CC
:1005A000CB1D0C948E08AA93EBB3EF70AE2FE881AD
:1005B000E07FEA2BEBBB8DE08A95F1F7DB9A8DE0CB
:1005C0008A95F1F7DB988DE08A95F1F70C94770521
:1005D000AA93A881E8DFE881E295E883A881E3DFB8
:1005E00085E88A95F1F783C2AA93E881F0E0E65D99
:1005F000F84FE081A981AE0FEBDF998088802296C9
:100600000895A2E00E947318ACE0E2DFA1E00E942E
:100610007318E0E08E2E9E2E0895AA93A881AA302A
:1006200011F09B1448F0E0E0EA938394A82DDCDFFE
:10063000A881AA3009F45BC29394D99AA881C8DF33
:10064000D99855C2BA93AA931A93A981BA81ED9108
:10065000A983BA831E2FE03019F0A12FDEDFF5CF7A
:10066000188123960895AA93EAB3E06FEABBD39A60
:10067000D19AD29ADB98D998DA98B880E881E05874
:10068000E0932C07E881E054E0932D07A4E1B0E06B
:100690000E947D1C0E9479180E9479180E94791886
:1006A000A0E281DF88EC90E00197F1F7A8E290DF0B
:1006B000A4E08EDFA5E88CDFA6E08ADFA2DF17C208
:1006C000AA930E94C41D20E00C81AD81BE813D91A2
:1006D000AD83BE8318E0220FE22FE327E07811F00C
:1006E000E9E02E27330F1150B1F7015071F7E22FD7
:1006F000EE0FE1600E94CB1DFAC41A93E2E3E0938F
:100700003007EFEFEFB9779BFECFEFEFEFB9779BB5
:10071000FECF1FB11F3F21F0E0913007E03009F418
:1007200001C0F3CFE12F62C4C49AEFEFEFB9779B1A
:10073000FECF0895BA93AA930E94C41DE4E1E0930A
:100740002F07EFEFEFB9779BFECF1FB11F3F21F4CB
:10075000E0912F07E03009F401C0F3CF1E3F21F0F4
:10076000E0E00E94CB1D9EC22E813F81EFEFEFB9EA
:10077000779BFECF3F932F932F5F3F4FEFB1AF910A
:10078000BF91EC93EFEFEFB9779BFECF3F932F93A1
:100790002F5F3F4FEFB1AF91BF91EC93EFEFEFB908
:1007A000779BFECF3F932F932F5F3F4FEFB1AF91DA
:1007B000BF91EC93EFEFEFB9779BFECF3F932F9371
:1007C0002F5F3F4FEFB1AF91BF91EC93EC81FD8173
:1007D0003497EC83FD8351F6EFEFEFB9779BFECFB3
:1007E000EFEFEFB9779BFECFE1E00E94CB1D5AC23D
:1007F000AA930E94C41D81DFEF3F21F0E0E00E9438
:10080000CB1D75C4EC81EFB9779BFECFAC81AD3FBA
:1008100041F100E02D813E81D9012F5F3F4FEC91E6
:10082000EFB9779BFECFD9012F5F3F4FEC91EFB926
:10083000779BFECF015081F7EFEFEFB9779BFECFAB
:10084000EFEFEFB9779BFECFEFEFEFB9779BFECFDE
:100850001FB1E12FEF71E53021F0E0E00E94CB1DE8
:1008600046C4E1E00E94CB1D42C40E949C1D1A9325
:100870000A93EE81E07881F0EE81EF77EE83E7E78F
:10088000EA93A0E0B0E080E090E0EFDF0E2F0230CE
:1008900018F0198108812BC4AE81AC3449F044DFD3
:1008A000C4982BDFEF3F21F0EFEF198108811FC4BF
:1008B000EE81EFB9779BFECFED81EFB9779BFECF4D
:1008C000EC81EFB9779BFECFEB81EFB9779BFECF41
:1008D000EA81EFB9779BFECF11E0AE81A03411F42D
:1008E00015E904C0AE81A83409F417E81FB9779B55
:1008F000FECFAE81AC3421F4EFEFEFB9779BFECFA2
:100900001FEFEFEFEFB9779BFECF0FB107FF02C0EC
:10091000115009F401C0F5CFE02F19810881E7C318
:10092000BA93AA931A9314E0EFEFEFB9779BFECF37
:10093000A981BA811196A983BA831197EFB1EC937B
:10094000115091F7B8C4AA9324970E94C41DE8855A
:10095000E03011F0E1E0BFC0EAE0E0932F07E09162
:100960002F07E030E1F7E0912E07E27009F0B1C007
:10097000BC9AC49AE8B3EF75E8BBC69ABE98E7B3D1
:10098000E06BE7BBE2E5EDB9E0E0EEB935E01AE097
:10099000EFEFEFB9779BFECF1150D1F7E0E4EA9388
:1009A000A0E0B0E080E090E060DF0E2F3150013039
:1009B00011F0303009F401C0EACF30E0013009F025
:1009C00068C0E4E6E0932F07E8E4EA93AAEAB1E01E
:1009D00080E090E04ADFE13091F5DE011496A0DF7F
:1009E000AE81A13019F4AF81AA3A09F027C0E09195
:1009F0002F07E03049F0E9EEEA93A0E0B0E080E0B4
:100A000090E433DFE03009F401C0F1CFE0912F072B
:100A1000E03049F0EAE7EA93A0E0B0E080E090E05F
:100A200024DFE03009F00AC0DE01149679DFEC81A2
:100A3000E07411F0ECE001C0E4E03E2F2AC0E9EEE2
:100A4000EA93A0E0B0E080E090E00FDFE23018F43D
:100A500032E009EE02C031E001E4E0912F07E0301E
:100A600041F00A93A0E0B0E080E090E0FEDEE030EC
:100A700009F401C0F2CFE0912F07E03049F0E0E542
:100A8000EA93A0E0B2E080E090E0EFDEE03009F031
:100A900030E03093310748DE303051F0E0912E07DE
:100AA000EE7FE0932E07E0E5EDB9E1E0EEB911C08D
:100AB000C49823DE39DEE0E0EDB9E7B3EF70E7BBC1
:100AC000E8B3EF70E8BBBC98E0912E07E160E093DB
:100AD0002E07E0912E070E94CB1D29960895AA9318
:100AE000E881E03011F0E1E002C0E0912E072196AC
:100AF0000895AA93EF81E03019F4E881E03011F411
:100B0000E4E0D0C0E0912E07E17011F0E3E0CAC04C
:100B1000E0913107E87071F4E981FA816B817C81A1
:100B2000A0E0B2E080E090E00E94F91CE983FA8343
:100B30006B837C83A881A130A9F4E1E5EA93AA81C3
:100B4000BB818C819D8191DEE03059F4ED81FE8185
:100B5000FA93EA93A0E0B2E0EDDDE03011F0E0E0DE
:100B6000E88323C0E2E5EA93AA81BB818C819D8161
:100B70007CDEE030D1F4ED81FE81FA93EA93A0E0CF
:100B8000B2E0D8DDE03051F0ED81FE81E050FE4F63
:100B9000ED83FE83E881E150E88369F7ECE4EA93B2
:100BA000A0E0B0E080E090E060DEBEDDE881E03013
:100BB00011F0E1E001C0E0E075C0AA93EF81E03000
:100BC00019F4E881E03011F4E4E06CC0E0912E0704
:100BD000E17011F0E3E066C0E0912E07E47011F0DF
:100BE000E2E060C0E0913107E87071F4E981FA81D8
:100BF0006B817C81A0E0B2E080E090E00E94F91C73
:100C0000E983FA836B837C83A881A130A1F4E8E5B2
:100C1000EA93AA81BB818C819D8127DEE03051F46B
:100C2000ED81FE81FA93EA93AEEFE2DDE03011F060
:100C3000E0E0E88330C0E0913107E67039F0E7ED9D
:100C4000EA93A981BB27882799270FDEE9E5EA9374
:100C5000AA81BB818C819D8108DEE030E1F4ED81C9
:100C6000FE81FA93EA93ACEFC3DDE03051F0ED8101
:100C7000FE81E050FE4FED83FE83E881E150E88382
:100C800071F7E0E0F0E0FA93EA93ADEFB1DDE03028
:100C900011F4E1E0E88348DDE881E03011F0E1E0C3
:100CA00001C0E0E028960895BA93AA9360970E9445
:100CB000C41DEF89E03011F0E4E080C1E0912E071F
:100CC000E17011F0E3E07AC111E0EE89E03031F437
:100CD000C49813DDEF3F09F410E06EC1E13009F074
:100CE0005BC0E9E4EA93A0E0B0E080E090E0BDDD25
:100CF000E03049F4FE013496FA93EA93A0E1B0E0C3
:100D000019DDE03009F447C0EC81E295EF70E6951B
:100D1000E695E13069F4E0E0FC85AD85B0E0EA0FEE
:100D2000FB1F31969F01D90188279927EAE02CC043
:100D3000E985EF70AE2FEE85E078EE1FE0E0EE1F64
:100D4000AE0FED85E370EE0FEA0FEE5F0E2FEC8530
:100D5000E295EF70E695E695AE2FEB85F0E00E9408
:100D6000C51CB0E0AE0FBF1FEA85E370F0E00E9443
:100D7000C51CFE2FE0E0EA0FFB1F31969F01D90151
:100D800088279927E02FE9500E94A91CAC89BD89CA
:100D90000E94791D10E010C1E23041F4AC89BD8998
:100DA000E0E0F2E0ED93FC9310E006C1E33009F0DF
:100DB000A9C0E0913107E47071F1EDECEA93A0E095
:100DC000B0E080E090E051DDE03021F5EFEFEFB9E9
:100DD000779BFECFFE013496FA93EA93A0E1B0E050
:100DE000A9DCE030B9F000E3003031F0EFEFEFB90B
:100DF000779BFECF0150F8CFEE85E295EF70A0E132
:100E0000B0E080E090E00E94A91CAC89BD890E94FE
:100E1000791D10E076C0E9E4EA93A0E0B0E080E05C
:100E200090E023DDE03009F06CC0FE013496FA93C7
:100E3000EA93A0E1B0E07EDCE03009F462C0E0912A
:100E40003107E27051F1EE85EF73FF2766277727B0
:100E50000E94D31C7F936F93FF93EF93EF85E0780D
:100E6000FF2766277727DF01CB01E7E00E94B51C4B
:100E7000AF91BF918F919F910E94871CEF5FFF4FB1
:100E80006F4F7F4FDF01CB01E989E295EF70E69567
:100E9000E695E1500E94A91C2FC0EE85EC77E695FF
:100EA000E695FF2766277727EF5FFF4F6F4F7F4F4E
:100EB0007F936F93FF93EF93EF85E370FF27662790
:100EC0007727DF01CB01E3E00E94A91CDF01CB0102
:100ED000EF85E07EE295EF70E695FF27662777279E
:100EE0000E94871CEF5FFF4F6F4F7F4FAF91BF9105
:100EF0008F919F910E94F91CAC89BD890E94791D38
:100F000010E05AC0EA3039F4E0913107AC89BD896C
:100F1000EC9310E051C0EB3011F409E403C0EC3065
:100F200001F50AE40A93A0E0B0E080E090E09DDCE7
:100F3000E030B1F4EC89FD89FA93EA93A0E1B0E0E6
:100F4000F9DBE03069F0EC89FD89FA93EA93AFE0D0
:100F5000B7DBAE2FEC89FD89E785EA1709F410E0CD
:100F60002BC0ED3071F4EAE7EA93A0E0B0E080E056
:100F700090E07BDCE03021F4AC89BD89D1DC10E06D
:100F80001BC0EE30C1F4EDECEA93A0E0B0E080E0ED
:100F900090E06BDCE03071F4EFEFEFB9779BFECFC0
:100FA000EC89FD89FA93EA93A0E4B0E0C3DBE0307A
:100FB00009F010E001C014E0B7DBE12F0E94CB1D67
:100FC000689608951A9310912F07103019F0115058
:100FD00010932F0710913007103019F01150109313
:100FE0003007E0912E07EB7FE0932E0719910895CB
:100FF0002797A0917A02B0917B02109731F0A091CF
:101000007C02B0917D02109729F4E0E0F0E061E20B
:101010007AE36DC0FE013696FA93EA93FE013796A5
:10102000FA93EA93DE011896E0917A02F0917B023E
:101030000995FE013396FA93EA93FE013496FA93EA
:10104000EA93DE011496E0917C02F0917D0209950D
:10105000E881F981EC5BF74066277727DF01CB0158
:10106000E9E10E94A91C7F936F93FF93EF93EA81BC
:101070000E948118E5E10E94A91CAF91BF918F9158
:101080009F910E94A01CDF01CB01EB81F0E00E9448
:10109000E21C0E94DD1C0E94A01C7F936F93FF93B3
:1010A000EF93EE810E948118EBE00E94A91CAF91A2
:1010B000BF918F919F910E94A01C7F936F93FF938C
:1010C000EF93ED810E948118E5E00E94A91CAF9189
:1010D000BF918F919F910E94A01CDF01CB01EC81F9
:1010E000F0E0F595E7950E94E21C0E94A01C27966F
:1010F0000895AA931A93EA81FB81E4911E2FE030B0
:1011000019F0E981E11709F406C0EA81FB81319603
:10111000EA83FB83F0CFE12FF0E018812496089555
:101120000E949C1D24971A93A985BA859E960E94B9
:1011300087180E948E180E9493180E94B81D09F407
:1011400050C0E985FA85E481E03089F10E94981861
:10115000E030E1F5A985BA851496E0E0EC93E985E5
:10116000FA850E94AA180D01A985BA855A960E948F
:101170006E1DD0010E94871C0E9493180E94BD1D05
:10118000B0F4E985FA851381123088F0A985BA8513
:101190005A960E946E1D0E9493180E94871CE98334
:1011A000FA836B837C830E9498181150EDCF0E94C4
:1011B0008E180E94AE1DA9F0E985FA85A181AA9337
:1011C000EA85FB85F2960E94AF1821F0E1E01881D4
:1011D0002B9608950E948E18A985BA859E960E9426
:1011E000791DE0E0188159C4BA93AA931A93E98152
:1011F000FA810E94BC181E2F103009F05BC0A98133
:10120000BA81AC91A33029F4E981FA81E581E0301B
:1012100009F444C0A981BA810E94C418E981FA8105
:101220000E94CC18E981FA81F296E250FE4FA5E5C2
:10123000BAEAA083B183E981FA81F296A2E5B2E528
:1012400081E691E40E94D518EC51FE4FA2E7B2E787
:1012500081E491E60E94D518E851FE4F0F01A98163
:10126000BA811E960E94DB18F296E451FE4F0F01E0
:10127000A981BA811A960E94DB18A181AA93EA81FA
:10128000FB81F296FA93EA93EC81FD810E94E318C8
:1012900094DCA981BA811596E0E0EC93E981FA81AA
:1012A000A181AA93E0E0EA93A0E0B0E0FDDCE030A9
:1012B00009F011E0E12F1881239608950E949C1DEA
:1012C00024970E94C41D0E94EB180E94F01850F051
:1012D000AC85BD855E960E946E1D0E94EB180E9433
:1012E000BD1D18F00E94F81860C0AC85BD859296AF
:1012F0000E94FD18AC85BD85EC91F0E0E130A0E0E6
:10130000FA0739F528853985F901F695E7952E0F05
:101310003F1F0E94041909F046C00E9416190C9143
:1013200011272F5F3F4F0E940419E9F50E941619FB
:10133000EC91FE2FE0E00E2B1F2BE885E17021F0F1
:10134000F8010E94CA1C02C0F801FF7066277727C7
:101350002CC0E230A0E0FA0779F40E941E190E9426
:1013600027190E942E19F9F4A885B985E2E00E9498
:1013700035190E943E1919C0E330A0E0FA0799F42C
:101380000E941E190E9443190E942E1961F4A8851B
:10139000B985E4E00E9435190E946E1DEF7FFF7F42
:1013A0006F7F7F7002C00E944A190E94CB1D2E964B
:1013B00008950E949C1D24970E94C21D0E944F19EF
:1013C0000E94F01850F0AA89BB895E960E946E1D9B
:1013D0000E944F190E94BD1D10F052E085C0AA89DD
:1013E000BB8992960E946E1DEE83FF836887798782
:1013F000AA89BB89EC91F0E0E130A0E0FA0709F09E
:1014000043C00E851F85F801F695E7950E0F1F1F47
:101410000E94541909F063C00E94671951F0D90164
:10142000EC91EF70AE2FEA85F0E00E94C11CEA2B30
:1014300001C0EA85D901EC930F5F1F4FAA89BB89D0
:101440001496E1E0EC930E94541909F048C00E9400
:10145000671949F00E947219E4E00E94B51CFF2749
:10146000662777270EC0D901EC91E07F1E2E0E94DF
:101470007219E8E00E94B51CFF2766277727EF70F6
:10148000E129D901EC932BC0E230A0E0FA0789F4FE
:101490000E9477190E9427190E94801901F5AE85D4
:1014A000BF85E2E00E948819AA85BB85A083B1832D
:1014B00016C0E330A0E0FA0789F40E9477190E9471
:1014C00043190E94801959F4AE85BF85E4E00E945B
:1014D00088190E9472190E94921D01C052E0AA89C7
:1014E000BB891496E1E0EC93E52F0E94C91D649638
:1014F00008950E949C1D24971A930E9491190E949E
:10150000F01818F00E94961910F012E044C010E094
:101510000E94961908F03FC0E985FA85FA93EA938C
:10152000AF81B88589859A85C9DEE983FA836B83A3
:101530007C830E949F190E94AE1D69F10E9493183E
:101540000E94A41911F412E026C00E9493180E9470
:10155000AC1911F411E01FC0E985FA85FA93EA93FA
:10156000EF81F88569857A850E94971D0E94B419DC
:1015700020DF1E2F103079F4E985FA850E94B91911
:1015800029F00E94BE191596E1E0EC930E949F1984
:101590000E94CC19BDCFE12F18817FC20E949C1DF3
:1015A0006097AC89BD895E960E946E1D0E94D1191C
:1015B0000E94D4190E94AE1DB1F4AC89BD891A965F
:1015C0000E94FD180E94D9190E94B21D39F00E9494
:1015D000DE190E94D9190E94BD1D20F00E94F81842
:1015E0000E94E1191CC00E94E6190E94EB190E949A
:1015F000F0190E94F7190E94F01818F40E94F818C8
:101600008CC00E94DE190E94F7190E94BD1D18F4BB
:101610000E94FC1982C00E94D4190E94E1190E9404
:10162000011A0E94061A0E940B1AEF5FFF4F6F4FBC
:101630007F4F0E94061A0E94DE190E94EB180E943A
:10164000BD1D60F0E2E0F0E060E070E00E94061A8C
:101650000E94101A18F40E94151A5FC00E94E61921
:101660000E9472190E94F0190E941A1AA1F00E9499
:10167000F7190E94AC1929F00E94F7190E94A419C9
:1016800019F40E94FC1949C00E94101A19F40E9412
:10169000151A43C0C8CF0E94E619EA85FB856C8500
:1016A0007D850E94971DAFEFBFEF8FEF9FE081DE3A
:1016B000E03019F00E944A1930C00E94D4190E94EB
:1016C000AE1D71F00E94E6190E941E1A0E94971D1D
:1016D0000E944F196EDEE03019F00E944A191DC0B9
:1016E0000E940B1AAC89BD891A960E94791DEC895B
:1016F000FD890E94B91979F0AC89BD891E960E94B6
:10170000741D3197604070400E947E1DAC89BD8978
:101710001596E1E0EC930E940B1A669608950E94DC
:101720009C1D0E94DE19E250F040604070400E9413
:10173000D119EC81FD81A68DB78D80A191A1E2E048
:10174000F0E060E070E00E94231A0E94881D0E9471
:10175000BD1D18F00E94151A76C3EC81FD81E2814F
:10176000F0E00E94881D0E94E21C0E94F91C7F93F9
:101770006F93FF93EF93AC81BD819A960E946E1D8B
:10178000AF91BF918F919F910E94871C5CC3BA93C8
:10179000AA9324971A930A93EE81FF81A885B985AD
:1017A0001496ED93FC93A885B98516960E94281A85
:1017B0000E942F1A0E94A41929F00E94341A0E9434
:1017C000391A10F0E2E078C00E94411A29F40E9410
:1017D000341AA081A33009F006C00E94341AB696CC
:1017E000DF010E94281A0E94411AA1F40E94481A9F
:1017F0003896DF010E946A1DAE81BF81AE17BF0718
:1018000010F0E2E059C00E94341AB696DF010E943F
:101810006E1D37C00E94341AE281A0E1EA9F800168
:10182000AE81BF81A017B10728F10E94341AFA9344
:10183000EA930E94D91942DDEA83FB836C837D839E
:101840000E942F1A0E94AC1911F4E1E035C00E94E9
:101850002F1A0E94F01828F00E94341A0E94391A98
:1018600010F0E2E029C0EE81FF81E01BF10BEE8376
:10187000FF83D6CF0E94481AFA93EA930E94D9199F
:101880004EDFDF01CB01EE81FF810E94CA1C0E9466
:10189000521AA885B9851E960E94791D0E94341A95
:1018A000F296DF01EE81FF810E94571AA885B98563
:1018B0005296ED93FC93E0E0198108812A960895F1
:1018C000AA9324970E94C41DA985BA8514960E94E4
:1018D0006A1D31968F01002E012A31F0A985BA8543
:1018E0001E960E945F1A11F4E4E0D5C0F801EF7073
:1018F00009F0BEC00E94BE191A960E945F1A61F4D8
:101900000E94641A3896DF010E946A1D0E171F0795
:1019100010F0E4E0C0C0ACC0F8010E94CA1C0F0186
:101920000E94641AE281F0E03197E021F1213097C2
:1019300009F09EC00E94641A0E94691ABFDC0E94CE
:10194000E1190E94D9190E94F01810F4E2E0A3C036
:101950000E94D9190E94AC1911F4E1E09CC00E94C8
:10196000641A7E96DF010E946E1D0E94D9190E94A2
:10197000BD1D08F46DC0E885E03011F4E4E08BC0D3
:101980000E94641A0E94691A09DE0E94721A0E945B
:10199000AE1D11F4E7E07FC00E94D9190E94A4197E
:1019A00011F4E2E078C00E94D9190E94AC1911F438
:1019B000E1E071C00E94641A0E94BC18E03011F08E
:1019C000E1E069C00E94641A0E94CC180E94641A67
:1019D000DF01BE96FF93EF93FD010E94741AAF9151
:1019E000BF910E94791D30E00E94641AE2813E1787
:1019F000D8F40E94641A3496A1E0A0830E94641A6D
:101A00000E94BC18E03011F0E1E045C00E94641A69
:101A1000BE96DF010E94741DEF5FFF4F6F4F7F4F37
:101A20000E947E1D3F5FE0CF0E94641ABE96FF9326
:101A3000EF93DF010E946E1DDF01CB01E32FF0E089
:101A40000E94E21C0E94231AAF91BF910E94791D4F
:101A50000E94011AA985BA851A960E94791D0E94D2
:101A6000641A0E94741AA985BA851E960E94791D6F
:101A7000F801A985BA851496ED93FC930E94641A27
:101A8000F296DF01F8010E94571AA985BA8552968D
:101A9000ED93FC93E0E00E94CB1D2B9608950E94ED
:101AA000791A21F0E12F0E94CB1DCDC10E94881A26
:101AB00001F5AC81BD8152962D913C91D9010C91DB
:101AC000003011F414E015C0F901E385E87031F439
:101AD0000E94991A0E94FA17E03009F001C009C06B
:101AE000EC81FD81FA93EA93A0E0EADE1E2F10302C
:101AF000E9F2E12F0E94CB1DA6C10E94791AB1F430
:101B00000E94881A99F4EC81FD81A289B3890C9115
:101B1000053E11F0003009F409C0EC81FD81FA9313
:101B2000EA93A1E0CDDE1E2F103051F3103029F5DD
:101B30000E94881A11F5AC81BD8152962D913C917D
:101B40003A932A93E0E0EA93A0E2B0E00E942518DD
:101B50000E94991A0E941318AC81BD8154960E946C
:101B60006A1DE385E871D9011C96EC93AC81BD81B7
:101B70000E946A1D3496A1E0A083E12F0E94CB1D34
:101B800062C1BA93AA9325970E94C21DAD85BE85F6
:101B900054964D915C915A934A93E0E2EA93ABE0FC
:101BA000B0E00E942518E0E0E887E9871E2F2E2F7D
:101BB000E8E0EA87AB85BC850E946A1DEE83FF835F
:101BC0000E94A41AAE0FBF1FAC91AE3209F50E945D
:101BD000A91A0E3221F4A885B98513970CF003C019
:101BE0000E94B51AF4CF0F3221F00C3511F00132FA
:101BF00008F402C0E6E06DC00E94A41A0E94BC1A5C
:101C000010F4E4E201C0E0E2DA011B96EC9360C05C
:101C10000E94A91A013220F00F3211F00C3509F49C
:101C200032C00E3219F0EA852E1768F0AA85A83066
:101C300011F40E3211F0E6E04CC028E0EBE0EA8748
:101C4000110F110F1FC0003818F01360E6E041C0FB
:101C5000E4E5F0E0FA93EA93A02F4BDA309711F025
:101C6000E6E037C0013410F00B3508F002C0126016
:101C700007C0013610F00B3708F002C011600052A7
:101C80000E94B51AC5CF0E94A41A0E94BC1A10F473
:101C9000E4E001C0E0E00E2F203011F4E6E019C0CE
:101CA000DA01AC91A53E19F4DA01E5E0EC93AA85DE
:101CB000A83011F4110F110FE12FE370E13009F496
:101CC0000061E12FEC70E43009F40860FA01038749
:101CD000E0E00E94C91D2F960895BA93AA930E942E
:101CE000C41DE1E0E03029F0AC81BD81AC91A032AF
:101CF00009F006C0EC81FD813196EC83FD83F1CFC4
:101D0000AC81BD81AC91AF3229F0AC81BD81AC9189
:101D1000AC3559F4EC81FD813196EC83FD83AE81C5
:101D2000BF8116960E94C41A0AC0AE81BF810E946C
:101D30006A1D7696DF010E946E1D0E94C81AAC8152
:101D4000BD81AC91BB27909760F40E94CE1AA0E0B1
:101D5000B0E01DDD1E2FAE81BF8152960E94D31AC6
:101D60003DC00E94CE1ADE0116960BDF1E2F1030EA
:101D7000A9F5AE81BF8193DE1E2FAE81BF8154963F
:101D80000E946A1DE385E4700E2F103039F0143084
:101D900011F4003009F001C015E020C00030F1F46A
:101DA000AE81BF8152962D913C91F901E385E0719E
:101DB00011F415E013C00E94D81A0E94DD1C7F9315
:101DC0006F93FF93EF930E94DB1AAF91BF918F91B6
:101DD0009F910E94E01A0E94C81AC3CFE12F0E946F
:101DE000CB1D289608950E949C1DEC81FD81A18148
:101DF000AA93ED81FE81F296FA93EA93EB81FC813E
:101E00006D817E810E94E51A11F0E3E01CC0EC8137
:101E1000FD810E94EC1A11F0E2E015C0AC81BD8199
:101E2000A859BF4F0E94F61A11F4E0E00CC0EC81F3
:101E3000FD81F296EE5AFF4FDF010E94F61A11F46F
:101E4000E0E001C0E1E026960895AA9364970E941D
:101E5000C21DAD8DBE8D0E946A1DE887F987A885D9
:101E6000B985EC91E0530E2F0A3020F41196AC9115
:101E7000AA3309F00AC0E885F9853296E887F98720
:101E8000AD8DBE8DED93FC9302C0009136070130FD
:101E900010F0EBE0C9C1E02F0E94041B0E946A1DF4
:101EA000EE83FF83AB8DBC8DED93FC93309711F4E3
:101EB000ECE0BAC1AE81BF81EC91E03089F0EE81F7
:101EC000FF81A1810E946F055E2F50FD09C0EA8D40
:101ED000E03011F052FD01C002C0EAE0A5C1A3C18B
:101EE000AE81BF81E0E0EC93E02FAE81BF8111961F
:101EF000EC93EE81FF81A1810E94A3045E2F50FF2D
:101F000002C0E3E091C1EA8DE03011F052FD01C062
:101F100002C0EAE089C10E94CE1A0E94151AE88F19
:101F2000F98F6A8F7B8FDF01CB015DDF1E2F1130B0
:101F3000C9F4EE81FF81F296E254FE4F9F01E481E5
:101F4000E03081F0D90118960E946E1DEE8BFF8B58
:101F5000688F798F0E94CE1AA88DB98D8A8D9B8D3E
:101F600042DF1E2F133011F4E1E05EC1103049F45E
:101F7000AE81BF81DD960E946A1DE030A2E0FA07C3
:101F800011F0EDE051C1AE81BF81A85BBF4F0E944F
:101F90003E190E940C1B0E941E1A0E94AE1D41F4A5
:101FA000AE81BF81AA5ABF4F0E946E1D0E940C1BBA
:101FB0000E941E1AAE81BF815A960E94791DEE8141
:101FC000FF81EE5BFF4FE081AE81BF811396EC9302
:101FD000EE81FF81E381F0E00E94EB190E94E21C98
:101FE0000E94F91C0E940C1B0E94111B0E94181BCE
:101FF000AE81BF8192960E94791DEE81FF81E7AD8F
:10200000AE81BF811296EC93AE81BF81AD5BBF4FB5
:102010000E946A1DAE81BF811896ED93FC93AE813C
:10202000BF81AB5BBF4F0E943E19EE87FF87688B75
:10203000798B0E94AE1D51F4AE81BF81AE5ABF4F65
:102040000E946E1DEE87FF87688B798B0E94111BA3
:102050000E944F19662777270E94231A0E94EB19C6
:102060000E94911C7F936F93FF93EF930E941D1B1F
:10207000AF91BF918F919F91662777270E94961C01
:10208000EE81FF81E281F0E00E94E21C0E94371D98
:10209000EE5FFF4F6F4F7F4FEA87FB876C877D872F
:1020A000AE81BF815E960E94791D11E00E94721977
:1020B000A73FEFE0BE07E0E08E07E0E09E0708F0F4
:1020C00012E00E947219A73FEFEFBE07E0E08E0713
:1020D000E0E09E0708F013E0133039F4AE81BF81D1
:1020E000A25ABF4F0E946E1D02C00E94251BAE81E6
:1020F000BF8196960E94791D0E94251B7F936F9346
:10210000FF93EF930E941D1BAF91BF918F919F9101
:102110000E94521AAE81BF819A960E94791DAE81AB
:10212000BF811E960E944A190E94791DAE81BF810F
:102130001496E0E0EC93133009F05FC0AE81BF81EC
:102140001596EC93AE81BF81AE59BF4F0E946A1DB8
:102150000E94181BAE81BF8152960E94791DEE81AC
:10216000FF81A181AA93EF81F885F296FA93EA9311
:10217000E985FA850E94E3180E947905E03011F59F
:10218000EE81FF810E94EC1AE9F4AE81BF81D29604
:102190000E946E1DE235A2E5FA07A1E66A07A1E4F6
:1021A0007A0781F4EE81FF81F296EC51FE4FDF0158
:1021B0000E946E1DE237A2E7FA07A1E46A07A1E6D2
:1021C0007A0709F01AC0EE81FF81F296E451FE4FC2
:1021D000DF010E946E1DAE81BF811A960E94791D9B
:1021E000EE81FF81F296E851FE4FDF010E946E1DE5
:1021F000AE81BF811E960E94791DAE81BF811C9366
:102200000E94C418AE81BF8156960E94C41AA4E3EE
:10221000B7E0ED91FD913196FE93EE93AE81BF81D3
:102220001696ED93FC93E0E00E94C91D6F96089509
:10223000BA93AA93EA81FB81309771F0AA81BB819E
:10224000EC91E03049F0EA81FB81A681B781E88119
:10225000F981EA17FB0711F0E9E00AC0EA81FB8186
:10226000A1810E946F05E17011F0E3E001C0E0E0A0
:1022700024960895BA93AA931A930A93AC81A13035
:1022800010F0EBE020C0EC810E94041B0D911C912A
:10229000002E012A19F0D801E0E0EC93EA81FB81DD
:1022A000309721F0AA81BB81E0E0EC93EC81A2E3BE
:1022B000B7E0F0E0EE0FFF1FEA0FFB1FAA81BB8122
:1022C000A083B183E0E01981088125960895AA933F
:1022D000A2970E94C41DA9A5BAA50E94D31AEEA177
:1022E000EF71EEA3FE01B796FA93EA93FE017296A0
:1022F000FA93EA93EAA5EE71AE2FA7DD1E2F1030F8
:1023000009F013C1FE013496ECA3FDA3FE01709603
:10231000FA93EA93A9A5BAA5E0DC1E2FEEA1EC7111
:1023200009F496C02897103089F0143021F4DE01AA
:102330005896E3DB1E2F103019F0E12F2896F5C0D8
:10234000EEA5E860EEA72AA53BA569C0EEA5E4705E
:1023500019F0E8E02896E9C02AA53BA5022E032A39
:1023600021F0F901E385E17119F0E7E02896DDC07D
:10237000EEA5E87009F453C00E94D81A0E94DD1C33
:102380007F936F93FF93EF930E94DB1AAF91BF91FE
:102390008F919F910E94E01A0E94D119F9017496C1
:1023A000A0E0B0E0A083B183F9017A96A083B18365
:1023B000F9017C960E94B4190E94921DA88DB98DD6
:1023C0001496E1E0EC93A88DB98D9E960E94FD18BD
:1023D0000E94DE190E94AE1DA9F0E88DF98DFA93D6
:1023E000EA930E942F1A85D81E2F103011F02896DC
:1023F0009CC00E94DE190E942C1BA88DB98D1A96D4
:102400000E94791DE88DF98DFA93EA930E946E1867
:102410000E9490081E2F103011F0289686C0EEA55D
:10242000E870A1F0F9013B96A0E0A0830E94F807B4
:102430000E94721AD9011E960E94791DA88DB98D2D
:102440001496E1E0EC93EEA5E062EEA7289619C0A1
:10245000103011F0E12F69C02AA13BA1022E032AFE
:1024600021F0F901E385E07111F0E4E05EC0EEA136
:10247000E27021F0F901E385E17009F402C0E7E0C0
:1024800054C0A889B9899E960E946E1DA9A5BAA5B7
:102490005A960E94791DEAA1FBA1A9A5BAA55E964C
:1024A000ED93FC93EEA1A9A5BAA51496EC930E9416
:1024B000D81A0E94DD1C7F936F93FF93EF930E94C5
:1024C000DB1AAF91BF918F919F910E94E01AA9A54D
:1024D000BAA51E960E94791DD9015C960E946E1DB8
:1024E000A9A5BAA51A960E94791DA9A5BAA51696FE
:1024F0000E94C41AA9A5BAA51596EFEFEC93A9A559
:10250000BAA556960E94C41AE889F989A9A5BAA560
:10251000ED93FC93A889B98916960E946A1DA9A516
:10252000BAA51296ED93FC93E0E00E94CB1DAB960A
:102530000895BA93AA932E970E94C21DE88DF98D33
:10254000EE83FF83AC89BD890E94D31A0E94311BA0
:102550000E94361B0E943B1B11F0E12F4CC1EA8DFB
:10256000FB8DA481A07811F0E2E045C1EA8DFB8DDE
:10257000A481A17011F4E7E03EC1EA8DFB8DA28534
:10258000B385848595859F938F93BF93AF930E9466
:10259000421BEF91FF916F917F910E94911C0E94CD
:1025A000061A0E940B1AAE89BF89882799270E94B4
:1025B000B81D20F4E885F985EE8BFF8BEE89FF8945
:1025C000309709F417C10E94421B0E94491B09F071
:1025D000DDC0EA8DFB8D05800E94311BE2810E1665
:1025E000C8F10E94421B0E94B21D31F4AA8DBB8D1E
:1025F0001E960E946E1D08C00E94311B0E94361B51
:102600000E944E1B0E945E09E88BF98B6A8B7B8BC4
:10261000A889B9898A899B890E94F01820F40E94B0
:10262000531BE2E0E8C0A889B9898A899B890E9486
:10263000AC1921F40E94531BE1E0DDC00E94D419C3
:10264000AA8DBB8D52960E94791DAA8DBB8D1596C1
:10265000E0E0EC930E94311B0E94361B0E944E1B4F
:102660005ED80E945A1B0E941A1A21F40E94531B22
:10267000E2E0C1C00E945F1B0E94F7190E94641B28
:102680000E945A1BAE89BF890E94691B09F449C088
:102690000E945F1BE40FF51F0F010E94311BE281B6
:1026A000D001F0E0EA17FB0750F40E94311BE281F1
:1026B000F0E0DF010E945F1BAE1BBF0BAD010E946B
:1026C000311B0E94711BEF85F88969897A890E9404
:1026D000971DA42F0E947905E03021F00E94531B22
:1026E000E1E089C0EA8DFB8DA481A07429F00E94ED
:1026F000781B0E947F1B08F00FC00E94781B0E946D
:10270000871BAE81BF8188279927EA0FFB1F0E9494
:10271000361BB0960E94901BAA8DBB8D0E94961B03
:1027200055C0EA8DFB8DA481A07489F00E94311BF5
:102730000E94A11BED8DFE8D0E94A91B21F00E941D
:10274000531BE1E058C0AA8DBB8D0E94B41B0E94B0
:10275000781B0E94B81D79F00E94311B0E94A11BBA
:10276000EF85F88969897A890E94E51A21F00E942B
:10277000531BE1E040C00E94FC19AA8DBB8D569608
:102780000E94791DAA8DBB8D0E94B91BAA8DBB8D9D
:102790000E94BE1BA0E0B2E0AE1BBF0B9D01EE8904
:1027A000FF89E217F30710F42E893F890E94CE1AA1
:1027B000AC8DBD8D0E94BE1BAC8DBD8D9096EA0F79
:1027C000FB1FFA93EA93D9010E9413180E94C31BBE
:1027D000EA8DFB8D0E94CB1BD0010E94791DAC8934
:1027E000BD890E94D41BEE89FF89E21BF30BEE8B9F
:1027F000FF8BE4CEE0E00E94C91D6C960895BA9369
:10280000AA932A970E94C21DEC89FD89EE83FF835B
:10281000A889B9890E94D31A0E94DB1B0E94E01B81
:102820000E943B1B11F0E12F89C1EE89FF89A48131
:10283000A07811F0E2E082C1EE89FF89A481A27044
:1028400011F4E7E07BC1EE89FF89A285B385848519
:102850009585EA89FB890E94521A7F936F93FF93B3
:10286000EF930E94E51BAF91BF918F919F910E94C2
:10287000BD1D18F4E0E0EA8BEB8BEA89FB89309709
:1028800009F442C10E94EB1B0E94491B09F000C1E0
:10289000EE89FF8905800E94DB1BE2810E1608F499
:1028A00048C0AE89BF8916960E945F1AB1F4AE89FE
:1028B000BF891E960E946E1D0E945A1B0E941A1A02
:1028C00059F40E94DB1B0E94F21B0E945A1BAE8926
:1028D000BF891E960E94791D0AC00E94DB1B0E94C0
:1028E000E01B0E944E1B0E94CE0A0E945A1B0E94AF
:1028F0001A1A09F409C10E94F7190E94A41921F4B7
:102900000E94F71BE2E01AC10E94F7190E94AC195D
:1029100021F40E94F71BE1E011C10E94FC19AE896D
:10292000BF8952960E94791DAE89BF891596E0E055
:10293000EC93EE89FF89A481A07489F00E94DB1BCF
:102940000E94FE1BE98DFA8D0E94A91B21F00E94B6
:10295000F71BE1E0F3C0AE89BF890E94B41B0E945F
:10296000DB1B0E94E01B0E944E1B0E948F0B0E94EB
:10297000061A0E940B1A0E94AE1D21F40E94F71B3A
:10298000E2E0DCC00E94061C0E94EB180E94641B5F
:102990000E94061AAA89BB890E94691B09F44FC0CC
:1029A0000E94061CE40FF51F0F010E94DB1BE28151
:1029B000D001F0E0EA17FB0750F40E94DB1BE28134
:1029C000F0E0DF010E94061CAE1BBF0BAD010E94B0
:1029D000DB1B0E94711BEB85FC856D857E850E944B
:1029E000971DA42F0E94DD05E03021F00E94F71B07
:1029F000E1E0A4C00E940B1C0E947F1BD8F4EE896A
:102A0000FF89B0960E94E01BA689B789808D918DC1
:102A1000EA85FB856C857D850E94871BA885B98525
:102A200088279927EA0FFB1F0E94901BAE89BF8958
:102A30000E94B41BAE89BF890E94961B51C00E94A0
:102A40000B1C0E94B81DC9F00E94EB1B0D010E94D7
:102A5000E51BD0010E94BD1D58F40E94DB1B0E94A3
:102A6000FE1BEB85FC856D857E850E94E51A09F4C9
:102A700004C00E94F71BE1E061C00E940B1AAE89FE
:102A8000BF8956960E94791DAE89BF890E94B91BE5
:102A9000AE89BF890E94BE1BA0E0B2E0AE1BBF0B97
:102AA0009D01EA89FB89E217F30710F42A893B8923
:102AB000AE89BF890E94BE1BAE89BF899096EA0F7E
:102AC000FB1FFA93EA93E885F985FA93EA93D90113
:102AD0000E941318AE89BF891496EC91E064EC93C0
:102AE0000E94C31BEE89FF890E94CB1BD0010E946C
:102AF000791DA889B9890E94D41BEA89FB89E21B48
:102B0000F30BEA8BFB8BB9CE0E94EB1B0D010E94ED
:102B1000E51BD0010E94B81D50F4AE89BF891696FE
:102B20000E946E1DAE89BF891A960E94791DAE89DA
:102B3000BF891496EC91E062EC93E0E00E94C91D1D
:102B400068960895BA93AA9324970E94C41D0E9480
:102B5000341AFA93EA93EA85FB850E943B1B09F03D
:102B600070C0E885F985A481A07209F46AC0A481C7
:102B7000A074A1F00E94341AE181EA93E985FA85F4
:102B8000B096FA93EA93EB85FC850E94A91B11F09D
:102B9000E1E058C0A885B9850E94B41B0E94341A90
:102BA000FA93EA93EA85FB85A28DB38D848D958D8A
:102BB0000E9490081E2F103009F043C0A885B985E7
:102BC0005E962D913C91D9011B96EC91E062EC93BD
:102BD000A885B9851A960E946E1DD9015C960E943F
:102BE000791DA885B9851E960E946A1DD9015A963D
:102BF000ED93FC93E885F985A685B7858089918951
:102C0000FD01BC010E94D81CD9015496ED93FC93A0
:102C10000E94F8070E94721AD90156960E94791DE7
:102C2000A885B9851496EC91EF7DEC930E94341A37
:102C30003496A1E0A0830E94341ADF010E94F408B8
:102C40001E2FE12F0E94CB1D2A9608950E949C1DE5
:102C500060971A930E94121CFA93EA93EF89F88DF9
:102C60000E943B1B09F094C1ED89FE89A481A078E4
:102C700011F0E2E08EC10E94171C0E941D1C0E94F0
:102C8000B81D28F4ED89FE89A481A27009F004C062
:102C90000E94171C0E94221CAD89BE8916960E94B4
:102CA00087180E94151A0E94CC190E94271C15969D
:102CB000EFEFEC930E941D1C0E94B21D08F011C1A1
:102CC0000E94121CE281F0E00E94E21CA0E0B2E04F
:102CD00080E090E00E94F91CE987FA876B877C8787
:102CE0000E9493180E94B21D98F40E942F1C0E940B
:102CF000341C7F936F93FF93EF930E949F190E9460
:102D0000341CAF91BF918F919F910E94BD1D08F41B
:102D100021C00E949F190E942C1BDF01CB010E9441
:102D20003E1C0E942C1B0E94EC1C0E949B1C0E94BB
:102D3000271C16960E946E1D0E941D1C0E94961C48
:102D4000A98BBA8B8B8B9C8BAD89BE8952960E94C6
:102D5000431C2BC0AD89BE891E960E94431C0E9455
:102D60004A1C0E94AE1DF9F40E94121C0E94F21B24
:102D70000E944F1C0E94541C0E94A41921F40E941E
:102D8000591CE2E006C10E94541C0E94AC1921F4B7
:102D90000E94591CE1E0FDC00E944A1CAD89BE8919
:102DA0001E960E94791D0E94601C0E944A1C0E946F
:102DB000AE1D09F496C00E943E1C0E941D1C0E947C
:102DC000B81D08F055C0ED89FE89A481A27099F064
:102DD0000E94121C0E94671C0E94CE0A0E944F1C77
:102DE0000E944A1C0E94AE1D29F40E943E1C0E94B3
:102DF000221C3EC008C00E94121C0E94671C0E9438
:102E00005E090E944F1C0E94541C0E94AC1921F4C0
:102E10000E94591CE1E0BDC00E94541C0E94F018A1
:102E200058F00E94121C7E96DF010E946E1D0E94C7
:102E3000541C0E94BD1D20F00E94591CE2E0A9C054
:102E40000E94601C0E946E1CA985BA858B859C859A
:102E50000E94871CD0010E94791DA985BA858B85A7
:102E60009C850E942F1C0E94911C0E94221CA3CFB3
:102E70000E946E1C0E941D1C0E94871CD0010E9493
:102E8000791D0E941D1CE0E0F2E060E070E00E940D
:102E9000371DAD89BE891596EC930E942F1CF170E9
:102EA0003097F9F00E94121C0E94671C0E948F0B41
:102EB0000E94CC190E948E180E94AE1D21F40E941F
:102EC000591CE2E066C0ED89FE89E581F0E00E94D0
:102ED00091190E94641B0E94CC19AD89BE890E9481
:102EE000B91B0E94761C0E94491B51F0AD89BE8916
:102EF00056960E946E1D0E9491190E94B81D09F4F9
:102F00002EC0ED89FE89A481A074A1F00E94121C3C
:102F1000E181EA93EE89FF89B0960E94E01B0E944E
:102F2000A91B21F00E94591CE1E033C0AD89BE8984
:102F30000E94B41B0E94121CE181EA93EE89FF8972
:102F4000B0960E94AF1821F00E94591CE1E021C008
:102F50000E948E18AD89BE8956960E94791D0E94E6
:102F6000761C0D010E94171CD0010E94B81D80F430
:102F7000AD89BE8916960E946E1DAD89BE891A96CE
:102F80000E94791DAD89BE891496EC91E062EC93A4
:102F9000E12F188167960895BA93AA93A991B991E0
:102FA000E991F99130962AF4E095F09531966DE229
:102FB0006D93E89480E197E20DD088EE93E00AD01B
:102FC00084E6992707D08AE005D06E2F10D06627B7
:102FD0006C9308956627E817F90720F06395E81BBE
:102FE000F90BC9F7662311F416F008956894605D33
:102FF0006D930895BA93AA9366277727899199913B
:10300000E991F991A991B991009629F001976D91F3
:1030100071916717C9F3671B10F4EFEF0895E0E0B3
:1030200009F0E3950895BA93AA939981888100964F
:1030300041F0BD81AC81FB81EA8161916D93019783
:10304000E1F7FD81EC8126960895BA93AA93B981A0
:10305000A881109631F0FC81EB816A816193119710
:10306000E9F7EB81FC8125960895E0EBF4E0FA9313
:10307000EA93E0EDF6E0FA93EA930895A52DBB27D5
:103080000C941102E093DD060C942602FA93EA9365
:10309000DE011B960E94CC17DE0119960C942203C8
:1030A0000E942203A0E9B1E00E947D1C0C94010360
:1030B000D8010E94E71C0E94380200E010E0089549
:1030C000E0EBF4E0FA93EA930895FA93EA93E1E0EF
:1030D000F0E0FA93EA93A6E0B0E00895AE81BF81F4
:1030E0008885998508950E94E802A3E0B0E00C94D9
:1030F0007D1CA0E30E94D30288EC90E00197F1F7D9
:103100000895F0E00E94E21CDF01CB0108950E94C7
:103110006E1DE983FA836B837C830895ED81FE81C4
:103120006F8178850895A981BA818B819C810895EA
:10313000E985FA85A181AA93EA85FB85F296FA933F
:10314000EA93EC81FD816E817F810E94971DA1E051
:103150000C94DD05A2A1B3A184A195A10895FA93D1
:10316000EA93E885F9856A857B850E94971DA1E031
:103170000E947905E0300895FA93EA93A0E0B0E068
:1031800080E090E00C9490089E96E0E0F0E060E033
:1031900070E00E94791D0895F296FA93EA93E0E0B8
:1031A000EA93A0E0B2E00C9425180E94921DE981F8
:1031B000FA81F29608950E946E1DD0010E94791D39
:1031C000E981FA810895A289B389848995890E9449
:1031D0009C1DA1E00895A885B9858A859B850895E1
:1031E000A230E0E0BE07E0E08E07E0E09E07089531
:1031F000E1E0F0E060E070E008950E946E1DEC8375
:10320000FD836E837F830895EC85FD85FA93EA93B1
:10321000D901E0E0F2E00E94241D60DF66277727F5
:103220000E948C1C0E949008E0300895AC85BD85FA
:10323000D296F901F170AE0FBF1F0895EC85FD85A0
:10324000FA93EA93AA85BB858C859D850895E0E075
:10325000F1E060E070E00E94371D08953FDF0E94BA
:103260008C1C0E949008E03008950E94191DF17096
:10327000AC85BD85D296AE0FBF1F08950E946A1D12
:10328000662777270895E0E8F0E060E070E00E94AC
:10329000371D0895EFEFFFEF6FEF7FEF0895AE85D5
:1032A000BF85888999890895EA89FB89FA93EA9309
:1032B000D801E0E0F2E00E94241D8DDF6627772729
:1032C0000E948C1C0E9490085E2F50300895AA899D
:1032D000BB89D296F801F170EA0FFB1F9F01EE85C2
:1032E000E1700895AA85BB858C859D850895EA893E
:1032F000FB89FA93EA93A889B9898A899B890895F9
:103300006ADF0E948C1C0E9490085E2F5030089546
:103310000E94191DF170AA89BB89D296EA0FFB1F82
:103320000895AD81BE818F8198850895A985BA855C
:103330005E960E946E1DF5DF0E94BD1D0895E98115
:10334000FA816B817C810895A130E0E0BE07E0E066
:103350008E07E0E09E070895AF3FEFEFBE07EFEF67
:103360008E07EFEF9E070895A0E0B0E080E090E0C8
:103370000895A685B78580899189EECFA985BA85FC
:103380001E960E94741DEF5FFF4F6F4F7F4F0E948C
:103390007E1DA985BA850895ED83FE836F837887A6
:1033A00008950E948D1D0895E889F9896A897B89AD
:1033B0000895AC81BD818E819F8108950E94831DF7
:1033C0000895EC83FD836E837F830895EC89FD89E6
:1033D000FA93EA930895AA89BB898C899D890895F7
:1033E0000E945E09EC87FD876E877F870895AC8514
:1033F000BD858E859F850895EC85FD856E857F85CD
:103400000895EC81FD816E817F810895E887F987B9
:103410006A877B870895E885F9856A857B850895A5
:10342000F0DFD9DE0E94B81D0895E0E0F0E060E032
:1034300070E00895E1DF0E94AE1D0895EA89FB89DE
:103440006C897D8908950E94A11D0E94911C089598
:103450000E946E1DEA83FB836C837D830895AA819D
:10346000BB818C819D810895A885B9850E946A1DC4
:1034700008957E96DF010E946E1DF1DF0E94BD1D42
:103480000895EA81FB816C817D810E94AE1D0895C3
:10349000EA81FB816C817D81A885B9851A960E949D
:1034A000791DE2CF662777270E94871C0895EF7069
:1034B000F070EE0F0E94C11CEA0FFB1F08950E94DE
:1034C0006E1D0E94AE1D0895A985BA850E946A1DD1
:1034D0000895FA93EA93EB85FC85A285B3858485EC
:1034E000958508956EDF8DCFFA93EA93F7DD0C94FE
:1034F0008F0BBA93AA930E94C41DEC81FD81FA93AD
:10350000EA93A0E0B0E00E94C70B1E2F1030089590
:10351000AC81BD810E946A1DFA93EA93EE81FF811E
:10352000A685B785808991890E9490081E2F10304A
:1035300008953A932A93EE81FF81A489B589BA93BD
:10354000AA93ABE0B0E00895E885F985AE81BF812C
:103550000895E885F9853196E887F9873197AE8136
:10356000BF81AE0FBF1F0C910895E22F2F5FF0E0D7
:10357000E40FF51F00830895EA0FFB1FAB85BC85A0
:10358000ED93FC930132089550DF0E94791D089558
:10359000AE81BF8116960E94791D0895EE81FF814C
:1035A000FA93EA930895E0E0F0E0ED93FC93089538
:1035B000D901549663CED9015A960E946A1D089586
:1035C000662777270E94A01C08950E94971DA1E0FE
:1035D0000E947905E0300895F296E250FE4FDF0137
:1035E0000E946A1DE535AAEAFA0708950E946E1D39
:1035F000EF7FFF7F6F7F7070E634A1E4FA07A4E5E8
:103600006A07A0E07A070895A2E3B7E0F0E0EE0FC2
:10361000FF1FAE0FBF1F0895EA8BFB8B6C8B7D8B5A
:103620000895AE81BF81A05CBF4F0E946A1D0895BE
:10363000AE89BF89888D998D35CFEE81FF81A085B8
:10364000B185FD010E94CA1C0895EE81FF8182DDD3
:10365000F5DE0E94871C0895E150F0406040704004
:103660000895AA8DBB8D0E946A1D0895FA93EA936E
:10367000EC8DFD8D0895A281B3810E9418111E2F3B
:1036800010300895EA8DFB8DA681B78180859185E4
:103690000895FD01BC01F17030970895A289B389A6
:1036A000848995890895AA8DBB8D1496EC91E06864
:1036B000EC930895EC87FD876E877F870895EA8DE8
:1036C000FB8DE581F0E008950E94E21C0E94871CBA
:1036D0000895E0E0F2E00E94241DAF01042E052AC7
:1036E0000895E181EA93EF81F885FA93EA930895CA
:1036F000EA8DFB8DA689B789808D918D7DCE0E9444
:10370000961CFA01662777270E94BD1D08950E9426
:10371000961CE0E0F2E060E070E00E94F91C089581
:10372000FA93EA93A0E0B2E00C9413181596EC918A
:10373000E40FEC93FA01EE0FFF1FFE2FE0E09F0174
:103740000895E181EA93EB8DFC8DB096FA93EA93AC
:103750000895A689B789808D918D0E949C1DA1E056
:103760000E94DD05E03008951496EC91EF7BEC9318
:1037700008951596EC91EF5FEC93089516960E94CC
:103780006A1DF1700895F901AE81BF81EA0FFB1F38
:10379000EE83FF83089536960F01DF010E946E1DB0
:1037A000DF01CB01F9017ECEED91FD91E20FF31F18
:1037B000FE93EE930895AE89BF890E946A1D089515
:1037C000FA93EA93E88DF98D0895AE89BF891A9628
:1037D0000E946E1D0895EE89FF89A681B7818085BC
:1037E00091850895FA93EA93BFDD0C94CE0AAE89D1
:1037F000BF891496EC91E068EC930895E181EA9317
:10380000EF89F88DB096FA93EA930895EE89FF89CF
:10381000E581F0E00895EE89FF89A689B789808D5A
:10382000918DF9CDAD89BE890E946A1D0895AD893B
:10383000BE891A960E946E1D0895A989BA898B893E
:103840009C890895E98BFA8B6B8B7C8B0895AD89ED
:10385000BE8916960E94791DAD89BE890895E989B1
:10386000FA896B897C890895F7DEDF01CB01E98550
:10387000FA856B857C850E94371D0895E985FA8558
:103880006B857C8508950E946E1DED87FE876F878E
:10389000788B0895ED85FE856F8578890895ED878D
:1038A000FE876F87788B0895AD85BE858F85988953
:1038B0000895AD89BE891496EC91E068EC93089563
:1038C000E9DFAD89BE8952960E94791D0895FA9369
:1038D000EA93AF85B88989899A890895ED89FE8927
:1038E00036960F01DF010E946E1D0895ED89FE8955
:1038F000A681B781808591850895109639F080ED75
:1039000097E00197F1F7A8951197C9F70895EA0F85
:10391000FB1F681F791F0895AE0FBF1F861F971FDB
:103920000895EA1BFB0B680B790B0895AE1BBF0BC8
:10393000860B970B0895EA23FB23682379230895C8
:10394000EA2BFB2B682B792B0895F195E195F0403C
:103950000895EE230E2EFD01BC0131F0EE0FFF1F86
:10396000661F771F0A94D1F70895EE230E2EFD01EE
:10397000BC0131F076956795F795E7950A94D1F7F4
:103980000895EE0FFF1FEE0FFF1FEE0FFF1FEE0F4C
:10399000FF1F0895F695E795F695E795F695E79557
:1039A000F695E7950895EE0FFF1F661F771F0895A0
:1039B000E62FF72F60E070E008956E2F7F2FE0E094
:1039C000F0E008956F2F660F660B762F08958B2F0A
:1039D000880F880B982F0895E095F0956095709565
:1039E0000895FA9FF02DEB9FF00DEA9FE02DF10D69
:1039F00008957A9F702D6B9F700DF89F700DE99F51
:103A0000700D6A9F602D710DFB9F600D711DE89F09
:103A1000600D711D8827FA9FF02D610D781FEB9FB7
:103A2000F00D611D781FEA9FE02DF10D681F781FD2
:103A300008956E2F6A9FF0016B9FF00D08953CD0A2
:103A4000D0DF0EF482DF08950024112490E1AA0F44
:103A5000BB1F001C111C0E1A1F0A18F40E0E1F1E8D
:103A600001C0A1609A9599F7FD01D00108953F9397
:103A70004F935F93002411244427552730E2AA0F67
:103A8000BB1F881F991F001C111C441F551F0E1AB5
:103A90001F0A460B570B28F40E0E1F1E461F571FFA
:103AA00001C0A1603A9559F7FD01BC01D001CA01DE
:103AB0005F914F913F910895E894F7FF02C045DF71
:103AC0006894B7FF06C0A095B095119600F80394CE
:103AD00000FA0895ED91FC9111970895ED91FD91F3
:103AE0006D917C9113970895ED91FD916D917D916C
:103AF0000895ED93FD936D937C9308957E936E935B
:103B0000FE93EE930895E881F9816A817B8108959F
:103B1000A881B9818A819B810895E883F9836A83AA
:103B20007B830895A083B1838283938308957A93DE
:103B30006A93FA93EA9308959A938A93BA93AA930D
:103B40000895182E862F612D192E972F712D1B2E5B
:103B5000BF2FF12D1A2EAE2FE12D08953097604022
:103B60007040089500240A160B06080609060895F9
:103B7000EA17FB07680779070895AE17BF0786079E
:103B8000970708955A934A933A932A931A930A935C
:103B900008955D814C813B812A81198108810895B6
:00000001FF
